:02357400337DA5
:0235760035829C
:02357A00259892
:02357C00294FD5
:02357E00358E88
:0235800031B068
:103518006B65795F646F776E006B65795F757000B6
:1032720043BA801231FF1234941235D01235C4D2BF
:10328200AF1235CA12348012324C1235B212345790
:0332920002301CEB
:10337D001232727F01121A077F06121A077F051289
:0C338D001A077F04121A07E4FF021A90CE
:10331F007BFF7A35791812106B1235DB900366122A
:10332F000900424800007F007E007D007C000226DD
:01333F00E3AA
:103226007BFF7A35792112106B1235E09003661216
:103236000900000000007F007E007D007C00122651
:06324600E37F01021B19E9
:0C35820012335F7D047F02121B4080F4B6
:0435E50025730A0040
:103416009004057401F0A37400F0A37414F07BFF0C
:073426007A3579E502106B15
:1031B000900004E0D394004016E014F070119000E9
:1031C00003E0D394004003123416E4900003F07D32
:0831D000017F02121B4080D8B0
:0C358E00122A697D017F02121B4080F4AC
:0C359A006261745F76203D2025660A0007
:10294F001231D87BFF7A35799A900444E0FCA3E0EA
:10295F00FDA3E0FEA3E0FF9004051208F412106B34
:10296F00E4FFFE7D207C41900444E0F8A3E0F9A34E
:10297F00E0FAA3E0FB1203345025E490044BF0126D
:10298F00008E7D647F02121B401235D67D647F025C
:10299F00121B4090044BE004F0E0C3940340E07D31
:0829AF00C87F02121B40809852
:10259800E49003D8F0A3F0A3F0A304F0E4FFFE7DD9
:1025A800207C41900444E0F8A3E0F9A3E0FAA3E01A
:1025B800FB12033450179003E012090000000000DA
:1025C8007F007E007D007C00122ABE80CF1224D3BB
:1025D8009003D8EEF0A3EFF0A3E0B5060EA3E0B5A4
:1025E80007097D017F02121B4080B19003D8E0707B
:1025F80002A3E070129003E012090041C800007FB6
:10260800007E007DC8802CC39003D8E0648094804D
:102618009003E0501112090041F000007F007E0095
:102628007DA07C40800F12090040A000007F007E42
:10263800007DF07C41122ABE9003D8E0FFA3E0A3FE
:0F264800CFF0A3EFF07D017F02121B400225A40B
:03000B0002189A3E
:10189500C2AF80FE3212189985D00B75D008AAE028
:1018A500C28CE58A24F7F58AE58C34D8F58CD28C80
:1018B500EC2440F8E6BC060274FFC39581B414001D
:1018C50040CE7907780F16E608700BC2AFE630E117
:1018D500034418F6D2AF08D9EDEA8BD0302D01229A
:1018E500D50DFCC0E0C0D0C0F0C083C082C000C030
:1018F50001C002C003C004C005C006C007E50C2333
:101905002410F87440C2AF46F6D2AFD22DE50CFFD5
:10191500232410F80F0808BF07047F007810E6306D
:10192500E4F200E50CC39F5020050C743F250CF82C
:10193500E6FDA68108E6AE0CBE060274FFCDF8E80A
:101945006D60E008E6C0E080F6E50CD39F4027E532
:101955000C2440F8E6AE0CBE060274FFFD18E6CD79
:10196500F8E5816D6006D0E0F61880F5E50C243FBA
:10197500C8F6150C80D3750D05E50C232410F87FEA
:1019850004C2AFE610E61E30E00310E20C7F003023
:05199500E10730E3044E
:10199A007F0854F4547CC6D2AF54804207C22D2229
:1019AA00F6D2AFD007D006D005D004D003D002D0EB
:1019BA0001D000D082D083D0F0D0D0D0E0C22D2286
:1019CA00783FA68174066006FF0876FFDFFB7F0773
:1019DA00E4780FF608F608DFFA7810763090357456
:1019EA00740193C0E0E493C0E0750D054389017565
:0D19FA008AF0758CD8D28CD2AFD2A922060B
:101A0700EFD3940640037FFF2274102F2FF8E620B0
:101A1700E5F4C2AFE64430F6D2AFAE0CEEC39F504A
:101A2700210E743F2EF8E6F908E618BE060274FF89
:101A3700FDED69600909E71919F7090980F3161619
:101A470080DAEED39F400405810581EED39F4022C3
:101A5700743F2EF808E6F9EEB50C02A981180606C0
:101A6700E6FDED6960091919E70909F71980F31E01
:101A770080D9EF243FF8E604F8EF2F0490357493EC
:091A8700F608EF2F93F67F002210
:101A9000EFD3940640037FFF22EF232410F8E630B3
:101AA000E5F4C2AFE6548CF6D2AFE50CB5070A7484
:101AB0003F2FF8E6F581021910502E74402FF8E6FA
:101AC000BF060274FFFD18E6F9743F2FF8FBE6FC31
:101AD000E96C6008A805E7F61D1980F4A803A605BF
:101AE0001FE50CB507E37F002274402FF8E6FD18D0
:101AF00086010F743F2FF8A601088604E50CB50790
:101B000002AC81ED6C60080D09A805E6F780F4E5EC
:091B10000CB507DE89817F00227B
:101B1900EFD3940640037FFF22EF232410F8C2AFCE
:101B2900E630E50530E002D2E4D2E2C6D2AF7F006A
:071B390030E2010F0218E485
:101B40008FF0E4FFFEE50C23240FF8C2A930F70D57
:101B50007F08E6600B2DF660325030800730F106CA
:101B6000EDF660277E020830F010C2AFE610E725E0
:101B70000E30E20CD2AF7F048014C2AFE610E7153E
:101B800054EC4EF6D2AFD2A90219107F0808EF44E8
:0F1B900083F4C2AF56C6D2AFD2A954804FFF2202
:03002300022CA507
:102CA500C0E0C083C082C0D075D000C0073098276F
:102CB500C298900003E0C394804002E4F0900003C2
:102CC500E0FF04F074142FF582E43400F583E599F0
:102CD500F09000047405F0309907C299900002E461
:0C2CE500F0D007D0D0D082D083D0E032F5
:03004300022B117C
:102B1100C0E0C083C082C0D075D000C007E59A3044
:102B2100E028539AFE900008E0C394804002E4F04C
:102B3100900008E0FF04F074942FF582E43400F56E
:102B410083E59BF09000097405F0E59A30E10853A4
:102B51009AFD900007E4F0D007D0D0D082D083D086
:022B6100E03260
:03008B00022B63E2
:102B6300C0E0C083C082C0D075D000C007E5AC30E0
:102B7300E02853ACFE90000DE0C394404002E4F023
:102B830090000DE0FF04F074142FF582E43401F596
:102B930083E5ADF090000E7405F0E5AC30E1085329
:102BA300ACFD90000CE4F0D007D0D0D082D083D01D
:022BB300E0320E
:03009300022BB588
:102BB500C0E0C083C082C0D075D000C007E58430B6
:102BC500E0285384FE900012E0C394204002E4F014
:102BD500900012E0FF04F074D42FF582E43401F57F
:102BE50083E585F09000137405F0E58430E1085322
:102BF50084FD900011E4F0D007D0D0D082D083D0EE
:022C0500E032BB
:0F3528007D607C09ED1D70011C144C70F7DFF104
:013537002271
:101B9F00EFD3940740037FFF2212062FFED3940347
:101BAF0040037FFF22EF7041EE700B900001120691
:101BBF0048F45293529412062FB4010B9000011265
:101BCF0006484293F4529412062FFEB4020A900074
:101BDF000112064842934294EEB4030D9000011295
:101BEF000648FEF45293EE4294EF640170431206DE
:101BFF002FFE700B900001120648F452915292EE94
:101C0F00B4010B9000011206484291F45292120651
:101C1F002FB4020A90000112064842914292120616
:101C2F002FB4030D900001120648FEF45291EE42BC
:101C3F0092EF6402704312062FFE700B9000011298
:101C4F000648F452955296EEB4010B90000112061D
:101C5F00484295F4529612062FB4020A90000112D0
:101C6F0006484295429612062FB4030D90000112BA
:101C7F000648FEF45295EE4296EF64037043120647
:101C8F002FFE700B900001120648F452B152B2EEC3
:101C9F00B4010B90000112064842B1F452B2120681
:101CAF002FB4020A90000112064842B142B2120646
:101CBF002FB4030D900001120648FEF452B1EE420C
:101CCF00B2EF6404704312062FFE700B90000112E6
:101CDF000648F452B352B4EEB4010B900001120651
:101CEF004842B3F452B412062FB4020A9000011204
:101CFF00064842B342B412062FB4030D90000112EE
:101D0F000648FEF452B3EE42B4EF64057043120678
:101D1F002FFE700B900001120648F452C952CAEE02
:101D2F00B4010B90000112064842C9F452CA1206C0
:101D3F002FB4020A90000112064842C942CA120685
:101D4F002FB4030D900001120648FEF452C9EE4263
:101D5F00CAEF6406704312062FFE700B900001123B
:101D6F000648F452CB52CCEEB4010B900001120690
:101D7F004842CBF452CC12062FB4020A9000011243
:101D8F00064842CB42CC12062FB4030D900001122D
:101D9F000648FEF452CBEE42CCEF640770431206B6
:101DAF002FFF700B900001120648F452E152E2EF40
:101DBF00B4010B90000112064842E1F452E2120600
:101DCF002FB4020A90000112064842E142E21206C5
:101DDF002FB4030D900001120648FFF452E1EF42B9
:041DEF00E27F00226D
:102E5800EFD3940140037FFF22EDD3940340037F17
:102E6800FF22EF7004C2A98002D2A9ED700553B702
:102E7800FDC2B9EDB4010553B7FDD2B9EDB40205F1
:102E880043B702C2B9EDB4030543B702D2B97F0014
:012E98002217
:102E9900EFD3940140037FFF22EDD3940340037FD6
:102EA900FF22EF7004C2AB8002D2ABED700553B7BD
:102EB900F7C2BBEDB4010553B7F7D2BBEDB40205B8
:102EC90043B708C2BBEDB4030543B708D2BB7F00C3
:012ED90022D6
:1032DB00EFD3940140037FFF22EDD3940340037F90
:1032EB00FF22EF25E025E0FFE5AF54FB4FF5AFE400
:0232FB00FF22B0
:1032FD00EFD3940140037FFF22EDD3940340037F6E
:10330D00FF22EFC43354E0FFE5AF54DF4FF5AFE4D8
:02331D00FF228D
:10329500EFD3940140037FFF22EDD3940340037FD6
:1032A500FF22EFC4333354C0FFE5AF54BF4FF5AF32
:0332B500E4FF2211
:102EDA00EFD3940140037FFF22EDD3940340037F95
:102EEA00FF22EF7004C2A88002D2A8ED700553B782
:102EFA00FEC2B8EDB4010553B7FED2B8EDB402056F
:102F0A0043B701C2B8EDB4030543B701D2B87F0095
:012F1A002294
:102F1B00EFD3940140037FFF22EDD3940340037F53
:102F2B00FF22EF7004C2AA8002D2AAED700553B73C
:102F3B00FBC2BAEDB4010553B7FBD2BAEDB402052F
:102F4B0043B704C2BAEDB4030543B704D2BA7F004A
:012F5B002253
:1033E600EFD3940140037FFF22EFC454F0FFE58F33
:0833F60054EF4FF58FE4FF22B4
:1033CD00EFD3940140037FFF22EFC43354E0FFE5B8
:0933DD008F54DF4FF58FE4FF224D
:10339900EFD3940140037FFF22EFC4333354C0FFBE
:0A33A900E58F54BF4FF58FE4FF22BB
:102F5C00EFD3940140037FFF22EDD3940340037F12
:102F6C00FF22EF7004C2AD8002D2ADED700553B7F5
:102F7C00DFC2BDEDB4010553B7DFD2BDEDB4020520
:102F8C0043B720C2BDEDB4030543B720D2BD7F00CB
:012F9C002212
:102CF100EDD3940340037FFF22EF30E10543E6204B
:102D0100800353E6DFEF30E00543E610800353E62E
:102D1100EFED700653B6DF53B5DFEDB4010653B6E0
:102D2100DF43B520EDB4020643B62053B5DFEDB461
:0B2D3100030643B62043B5207F0022BC
:1029B700EFD3940140037FFF22EBD3940340037FBF
:1029C700FF22EFB40112ED90FE817006E0547FF014
:1029D7008011E04480F0800BEF700890FE83E05494
:1029E700874DF0EB700653B6DF53B5DFEBB4010646
:1029F70053B6DF43B520EBB4020643B62053B5DF29
:0D2A0700EBB4030643B62043B5207F002248
:102F9D00EFD3940140037FFF22EDD3940340037FD1
:102FAD00FF22EF7004C2AC8002D2ACED700553B7B6
:102FBD00EFC2BCEDB4010553B7EFD2BCEDB40205C1
:102FCD0043B710C2BCEDB4030543B710D2BC7F00AC
:012FDD0022D1
:102E1500EFD3940140037FFF22EDD3940340037F5A
:102E2500FF22E5AF54FE4FF5AFED700653B6FE53E6
:102E3500B5FEEDB4010653B6FE43B501EDB4020689
:102E450043B60153B5FEEDB4030643B60143B501E0
:032E55007F0022D9
:102D3C00EFD3940140037FFF22EDD3940340037F34
:102D4C00FF22EF33333354F8FFE5AF54F74FF5AFB1
:102D5C00ED700653EEFE53DFFEEDB4010653EEFEAE
:102D6C0043DF01EDB4020643EE0153DFFEEDB40385
:0A2D7C000643EE0143DF017F002251
:102D8600EFD3940140037FFF22EDD3940340037FEA
:102D9600FF22EFC454F0FFE5AF54EF4FF5AFED70EF
:102DA6000653EEFD53DFFDEDB4010653EEFD43DFA2
:102DB60002EDB4020643EE0253DFFDEDB403064313
:082DC600EE0243DF027F002250
:102DCE00EFD3940140037FFF22EDD3940340037FA2
:102DDE00FF22EF25E0FFE5AF54FD4FF5AFED700696
:102DEE0053B6FD53B5FDEDB4010653B6FD43B50222
:102DFE00EDB4020643B60253B5FDEDB4030643B679
:072E0E000243B5027F002220
:10276700EFD3948140037FFF22EBD3940340037F91
:10277700FF22EF247F603204705D90FEC4EDF0EB22
:10278700700653B6FB53B5FBEBB4010653B6FB43D8
:10279700B504EBB4020643B60453B5FBEB64037010
:1027A7003B43B60443B504803390FEE4EDF0EB7091
:1027B7000653B6F753B5F7EBB4010653B6F743B56F
:1027C70008EBB4020643B60853B5F7EBB4030D4361
:0F27D700B60843B508800590FEE4EDF07F0022C0
:10305A00EDD394035029ED700653EEFB53DFFBEDDD
:10306A00B4010653EEFB43DF04EDB4020643EE045B
:10307A0053DFFBEDB4030B43EE0443DF0480037F0D
:0A308A00FF2290FE62EFF07F0022AB
:10148300AD07ED6401707A90FECCE054FEF0E054B9
:10149300FBF090FEC8E054FCF012062FFF90FEC84C
:1014A300E0548F4FF0900006120648FF90FECC30B8
:1014B300E00DE04401F090FEB1E04401F0800BE068
:1014C30054FEF090FEB1E054FEF0EF90FECC30E11C
:1014D3000DE04404F090FEB1E04402F0800BE054D0
:1014E300FBF090FEB1E054FDF090000312073DE5E0
:1014F300F090FED5F090000312073D90FED602183F
:101503003DED6402707A90FECCE054EFF0E054BFFE
:10151300F090FEC9E054FCF012062FFF90FEC9E0E4
:10152300548F4FF0900006120648FF90FECC30E235
:101533000DE04410F090FEB1E04404F0800BE05461
:10154300EFF090FEB1E054FBF0EF90FECC30E30DF2
:10155300E04440F090FEB1E04408F0800BE054BF5B
:10156300F090FEB1E054F7F090000312073DE5F070
:1015730090FED7F090000312073D90FED802183D6D
:10158300ED6403707A90FECDE054FEF0E054FBF07E
:1015930090FECAE054FCF012062FFF90FECAE054FE
:1015A3008F4FF0900006120648FF90FECD30E40DF9
:1015B300E04401F090FEB1E04410F0800BE054FEF3
:1015C300F090FEB1E054EFF0EF90FECD30E50DE08A
:1015D3004404F090FEB1E04420F0800BE054FBF0B3
:1015E30090FEB1E054DFF090000312073DE5F09068
:1015F300FED9F090000312073D90FEDA02183DED8C
:101603006404707A90FECDE054EFF0E054BFF090A4
:10161300FECBE054FCF012062FFF90FECBE0548F7C
:101623004FF0900006120648FF90FECD30E60DE025
:101633004410F090FEB1E04440F0800BE054EFF032
:1016430090FEB1E054BFF0EF90FECD30E70DE044E3
:1016530040F090FEB1E04480F0800BE054BFF09086
:10166300FEB1E0547FF090000312073DE5F090FED9
:10167300DBF090000312073D90FEDC02183DED64A1
:1016830080704F90000512064890FEDEF090000136
:1016930012073DE5F090FED2F090000112073D9055
:1016A300FED3F090000812064890FEDDB40106E078
:1016B3004480F08004E0547FF090000712064890C5
:1016C300FEC0B40106E04401F08004E054FEF07F64
:1016D3000022ED6405705690FEECE054FEF090FE9F
:1016E300E8E054FCF012062FFF90FEE8E0548F4F21
:1016F300F090000612064890FEEC30E00DE0440145
:10170300F090FEB5E04401F0800BE054FEF090FE53
:10171300B5E054FEF090000312073DE5F090FEF5AE
:10172300F090000312073D90FEF602183DED6406AB
:10173300705690FEECE054EFF090FEE9E054FCF0BC
:1017430012062FFF90FEE9E0548F4FF0900006122F
:10175300064890FEEC30E20DE04410F090FEB5E058
:101763004404F0800BE054EFF090FEB5E054FBF03E
:1017730090000312073DE5F090FEF7F0900003128E
:10178300073D90FEF802183DED6407705590FEED9D
:10179300E054FEF090FEEAE054FCF012062FFF90B6
:1017A300FEEAE0548F4FF090000612064890FEEDDB
:1017B30030E40DE04401F090FEB5E04410F0800BFE
:1017C300E054FEF090FEB5E054EFF09000031207F2
:1017D3003DE5F090FEF9F090000312073D90FEFA0C
:1017E3008058ED6408705790FEEDE054EFF090FEE2
:1017F300EBE054FCF012062FFF90FEEBE0548F4F0A
:10180300F090000612064890FEED30E60DE044101D
:10181300F090FEB5E04440F0800BE054EFF090FE12
:10182300B5E054BFF090000312073DE5F090FEFBD6
:10183300F090000312073D90FEFCF07F0022ED6460
:1018430081704C90000512064890FEFEF090000156
:1018530012073DFDACF0EC90FEF2F0AF05A3EFF004
:1018630090000812064890FEFDB40106E04480F0A3
:101873008004E0547FF090000712064890FEE0B425
:101883000106E04401F08004E054FEF07F00227F73
:02189300FF2232
:101DF300EF24807003021EAE147003021EF32480CE
:101E0300B408004003021F3F901E1975F003A4C5D8
:101E13008325F0C58373021E31021E3E021E4E024D
:101E23001E5E021E6E021E7E021E8E021E9E120782
:101E330012FDACF0EC90FED5021F399000021207A0
:101E43003DFDACF0EC90FED7021F39900004120761
:101E53003DFDACF0EC90FED9021F3990000612074D
:101E63003DFDACF0EC90FEDB021F39900008120739
:101E73003DFDACF0EC90FEF5021F3990000A12070D
:101E83003DFDACF0EC90FEF7021F3990000C1207F9
:101E93003DFDACF0EC90FEF9021F3990000E1207E5
:101EA3003DFDACF0EC90FEFB021F39120712FDACB6
:101EB300F0EC90FED5F0AF05A3EFF090000212070F
:101EC3003DFDACF0EC90FED7F0AF05A3EFF0900032
:101ED3000412073DFDACF0EC90FED9F0AF05A3EF83
:101EE300F090000612073DFDACF0EC90FEDB80465F
:101EF30090000812073DFDACF0EC90FEF5F0AF0545
:101F0300A3EFF090000A12073DFDACF0EC90FEF752
:101F1300F0AF05A3EFF090000C12073DFDACF0EC21
:101F230090FEF9F0AF05A3EFF090000E12073DFD10
:0D1F3300ACF0EC90FEFBF0AF05A3EFF02248
:1009AD009002DEEBF0A3EAF0A3E9F09002DDEFF0A8
:1009BD0064016003020B8B900000F0A3F0A3F0A381
:1009CD00F0A3F09002E1F0A3F09002E1E0FEA3E0CD
:1009DD00FFC39480EE9400501C74542FF582740163
:1009ED003EF583E4F09002E2E004F070DC9002E169
:1009FD00E004F080D4E49002E1F0A3F09002E1E095
:100A0D00FEA3E0FFC39480EE9400501C74142FF5E8
:100A1D008274003EF583E4F09002E2E004F070DCB5
:100A2D009002E1E004F080D49002DEE0FBA3E0FA56
:100A3D00A3E0F912062FFFE598543F4FF598EF64A8
:100A4D00C06008EF64406003020B3690000212088C
:100A5D00C47F807E8D7D5B7C001208009002E312C6
:100A6D0008F4E4FFFE7D01FC9002E3E0F8A3E0F959
:100A7D00A3E0FAA3E0FBC31208A040037FFF22907E
:100A8D0002E3E0F8A3E0F9A3E0FAA3E0FBC3E49BE3
:100A9D00FFE49AFE740199FDE498FC9002E31208BC
:100AAD00F49002DEE0FBA3E0FAA3E0F9900001125E
:100ABD000648FB64017038C28E538EFE5389BF53B6
:100ACD0089CF438E409002E3E0FCA3E0FDA3E0FE5E
:100ADD00A3E0FF78081208B18F8D9002E3A3A3A3C2
:100AED00E0F58BC2AB5389BF538FFDD28E8073EB74
:100AFD0064027032538EEF438E01538EF7438E0492
:100B0D009002E3E0FCA3E0FDA3E0FEA3E0FF780884
:100B1D001208B18FD69002E3A3A3A3E0F5D753AF8C
:100B2D00FB438E10803C7FFF229002DEE0FBA3E0B2
:100B3D00FAA3E0F912062FFF701390000812064871
:100B4D00B40105438E20801A538EDF8015EFB480DB
:100B5D0011900008120648B40105438780800353A5
:100B6D00877F9002DEE0FBA3E0FAA3E0F990000797
:100B7D001206487004C29C8002D29C7F0022900213
:100B8D00DDE064026003020CD5900005F0A3F0A334
:100B9D00F0A3F0A3F09002E1F0A3F09002E1E0FEEB
:100BAD00A3E0FFC39480EE9400501C74F42FF582E3
:100BBD0074013EF583E4F09002E2E004F070DC9005
:100BCD0002E1E004F080D4E49002E1F0A3F09002A1
:100BDD00E1E0FEA3E0FFC39480EE9400501C7494FA
:100BED002FF58274003EF583E4F09002E2E004F00C
:100BFD0070DC9002E1E004F080D49002DEE0FBA313
:100C0D00E0FAA3E0F912062FFF64C06008EF64401C
:100C1D006003020CB3EFB4C005439A808003539A6E
:100C2D007F9000021208C47F807E8D7D5B7C001258
:100C3D0008009002E31208F4E4FFFE7D01FC90022F
:100C4D00E3E0F8A3E0F9A3E0FAA3E0FBC31208A0E8
:100C5D0040037FFF229002E3E0F8A3E0F9A3E0FA5E
:100C6D00A3E0FBC3E49BFFE49AFE740199FDE498B5
:100C7D00FC9002E31208F4538EEF538EF7438E046B
:100C8D009002E3E0FCA3E0FDA3E0FEA3E0FF780803
:100C9D001208B18FD69002E3A3A3A3E0F5D753AF0B
:100CAD00FB438E1080037FFF229002DEE0FBA3E06A
:100CBD00FAA3E0F9900007120648C454F0FFE59A34
:100CCD0054EF4FF59A7F00229002DDE0640360033C
:100CDD00020E6990000AF0A3F0A3F0A3F0A3F09028
:100CED0002E1F0A3F09002E1E0FEA3E0FFC3944027
:100CFD00EE9400501C74742FF58274023EF583E45B
:100D0D00F09002E2E004F070DC9002E1E004F0808B
:100D1D00D4E49002E1F0A3F09002E1E0FEA3E0FF45
:100D2D00C39440EE9400501C74142FF58274013E50
:100D3D00F583E4F09002E2E004F070DC9002E1E073
:100D4D0004F080D49002DEE0FBA3E0FAA3E0F912F8
:100D5D00062FFF64C06008EF64406003020E47EF8A
:100D6D00B4C00543AC80800353AC7F9000021208E1
:100D7D00C47F807E8D7D5B7C001208009002E312A3
:100D8D0008F4E4FFFE7D01FC9002E3E0F8A3E0F936
:100D9D00A3E0FAA3E0FBC31208A040037FFF22905B
:100DAD0002E3E0F8A3E0F9A3E0FAA3E0FBC3E49BC0
:100DBD00FFE49AFE740199FDE498FC9002E3120899
:100DCD00F49002DEE0FBA3E0FAA3E0F9900001123B
:100DDD000648FB6403702943AC409002E3E0FCA39A
:100DED00E0FDA3E0FEA3E0FF78081208B18FD490D8
:100DFD0002E3A3A3A3E0F5D553D1F043D10A803D7F
:100E0D00EB64027032538EEF53ACBF538EF7438EAB
:100E1D00049002E3E0FCA3E0FDA3E0FEA3E0FF7875
:100E2D00081208B18FD69002E3A3A3A3E0F5D75320
:100E3D00AFFB438E1080067FFF227FFF229002DEE4
:100E4D00E0FBA3E0FAA3E0F9900007120648C454B2
:100E5D00F0FFE5AC54EF4FF5AC7F00229002DDE0E2
:100E6D0064046003020FFD90000FF0A3F0A3F0A344
:100E7D00F0A3F09002E1F0A3F09002E1E0FEA3E018
:100E8D00FFC39420EE9400501C74B42FF5827402AD
:100E9D003EF583E4F09002E2E004F070DC9002E1B4
:100EAD00E004F080D4E49002E1F0A3F09002E1E0E0
:100EBD00FEA3E0FFC39420EE9400501C74D42FF5D4
:100ECD008274013EF583E4F09002E2E004F070DC00
:100EDD009002E1E004F080D49002DEE0FBA3E0FAA2
:100EED00A3E0F912062FFF64C06008EF64406003B1
:100EFD00020FDBEFB4C005438480800353847F90E1
:100F0D0000021208C47F807E8D7D5B7C001208007C
:100F1D009002E31208F4E4FFFE7D01FC9002E3E091
:100F2D00F8A3E0F9A3E0FAA3E0FBC31208A0400385
:100F3D007FFF229002E3E0F8A3E0F9A3E0FAA3E03B
:100F4D00FBC3E49BFFE49AFE740199FDE498FC90C9
:100F5D0002E31208F49002DEE0FBA3E0FAA3E0F94D
:100F6D00900001120648FB640470294384409002EE
:100F7D00E3E0FCA3E0FDA3E0FEA3E0FF7808120888
:100F8D00B18FD29002E3A3A3A3E0F5D353D10F43C6
:100F9D00D1A0803DEB64027032538EEF5384BF536A
:100FAD008EF7438E049002E3E0FCA3E0FDA3E0FE88
:100FBD00A3E0FF78081208B18FD69002E3A3A3A394
:100FCD00E0F5D753AFFB438E1080067FFF227FFFE6
:100FDD00229002DEE0FBA3E0FAA3E0F990000712F5
:100FED000648C454F0FFE58454EF4FF5847F00228A
:020FFD007FFF74
:010FFF0022CF
:0F3538008F999000027401F0900002E070FA2267
:1034A80012062FFF600C123538740129F9E43AFA34
:0334B80080EE2281
:0F3547008F9B9000077401F0900007E070FA224C
:1034BB0012062FFF600C123547740129F9E43AFA12
:0334CB0080EE226E
:0F3556008FAD90000C7401F090000CE070FA2221
:1034CE0012062FFF600C123556740129F9E43AFAF0
:0334DE0080EE225B
:0F3565008F859000117401F0900011E070FA2230
:1034E10012062FFF600C123565740129F9E43AFACE
:0334F10080EE2248
:05002600AE07023538B1
:102A1400900001120648FFE5DE54F04FF5DE900009
:102A240002120648C43354E0FFE5DE54DF4FF5DEFE
:102A340012062FFFD3941F502B900003120648FE5A
:102A4400D39401501F900004120648FDD394035000
:102A540013EDC43354E0FDEEC433333354804D4F8F
:052A640090FEA8F02225
:0C35A600EFB4010443BC802253BC7F2220
:10285F00EFD3940F4002806BE4F5BDF5BEE5BC5499
:10286F00F044404FF5BC00000000000000000000E5
:10287F00E4FDE5BC30E54753BCDFE5DEAFBD30E539
:10288F000DEFFEACBEECFBEBFF9003A88022900394
:10289F00A8E4F0A3EFF0E5BEC4540FFBE0C4F85476
:1028AF000FC868FF9003A8E0C454F048FEEF4BFF39
:1028BF00EEF0A3EFF09003A8E0FEA3E0FF220DEDF2
:0728CF00B4FAAF7E107F0098
:0128D60022DF
:03002B000235E9B2
:0435E90053BCDF32BE
:10315E007370656564203D2025660A006D6F746F7F
:10316E00725F666C5F70776D2E50574D5F4475744D
:09317E007920203D2025640A009F
:10000E009002D47403F0A374F0F07B017A0279D4D9
:05001E007F01021B9FA1
:10002E009002D47403F0A3740FF07B017A0279D49A
:05003E007F02021B9F80
:103130009002D5745DF0A374C0F0E49002D9F0EF72
:10314000B401079002DB74018006EF70069002DB89
:0E315000F0A3F07B017A0279D47F8002148311
:061F40009003F41208F406
:101F46009004017401F0E4FFFE7DC87C429003F426
:101F5600E0F8A3E0F9A3E0FAA3E0FB120334400A99
:101F66009003F412090042C80000E4FFFE7DC87C1D
:101F7600C29003F4E0F8A3E0F9A3E0FAA3E0FB12B1
:101F860003346002500A9003F4120900C2C800002C
:101F9600E4FFFEFDFC9003F4E0F8A3E0F9A3E0FA09
:101FA600A3E0FB12033440047F0180027F0090040B
:101FB60001EFF09003FE60057420F080037410F0CA
:101FC600E4FFFEFDFC9003F4E0F8A3E0F9A3E0FAD9
:101FD600A3E0FB12033440109003F4E0FCA3E0FD01
:101FE600A3E0FEA3E0FF80119003F4E0FCA3E0FD74
:101FF600A3E0FEA3E0FF1203AD9003F41208F490F1
:1020060003F87470F0E4FBFA79C878429003F4E0C0
:10201600FCA3E0FDA3E0FEA3E0FF1202977B007A9B
:102026008079BB784612018E1203FC9003FBEEF01A
:10203600A3EFF07BFF7A31795E9003F4E0FCA3E036
:10204600FDA3E0FEA3E0FF9004051208F412106B56
:102056007BFF7A31796A9003FBE0FFA3E0900405E9
:10206600CFF0A3EFF012106B7B017A0379F87F03B0
:0A20760012148390FEB2E054CFF084
:01208000223D
:0623C7009003F41208F47B
:1023CD009004017401F0E4FFFE7DC87C429003F49B
:1023DD00E0F8A3E0F9A3E0FAA3E0FB120334400A0E
:1023ED009003F412090042C80000E4FFFE7DC87C92
:1023FD00C29003F4E0F8A3E0F9A3E0FAA3E0FB1226
:10240D0003346002500A9003F4120900C2C80000A0
:10241D00E4FFFEFDFC9003F4E0F8A3E0F9A3E0FA7D
:10242D00A3E0FB12033440047F0180027F0090047F
:10243D0001EFF09003FE60057440F080037480F0AE
:10244D00E4FFFEFDFC9003F4E0F8A3E0F9A3E0FA4D
:10245D00A3E0FB12033440109003F4E0FCA3E0FD75
:10246D00A3E0FEA3E0FF80119003F4E0FCA3E0FDE8
:10247D00A3E0FEA3E0FF1203AD9003F41208F49065
:10248D0003F87470F07F007E807DBB7C469003F472
:10249D00E0F8A3E0F9A3E0FAA3E0FB12018EE4FB60
:1024AD00FA79C878421202971203FC9003FBEEF002
:1024BD00A3EFF07B017A0379F87F0412148390FE69
:0524CD00B2E0543FF0F5
:0124D20022E7
:0621AB009003F41208F499
:1021B1009004017401F0E4FFFE7DC87C429003F4B9
:1021C100E0F8A3E0F9A3E0FAA3E0FB120334400A2C
:1021D1009003F412090042C80000E4FFFE7DC87CB0
:1021E100C29003F4E0F8A3E0F9A3E0FAA3E0FB1244
:1021F10003346002500A9003F4120900C2C80000BF
:10220100E4FFFEFDFC9003F4E0F8A3E0F9A3E0FA9B
:10221100A3E0FB12033440047F0180027F0090049D
:1022210001EFF09003FE60057402F080037401F089
:10223100E4FFFEFDFC9003F4E0F8A3E0F9A3E0FA6B
:10224100A3E0FB12033440109003F4E0FCA3E0FD93
:10225100A3E0FEA3E0FF80119003F4E0FCA3E0FD06
:10226100A3E0FEA3E0FF1203AD9003F41208F49083
:1022710003F87470F07F007E807DBB7C469003F490
:10228100E0F8A3E0F9A3E0FAA3E0FB12018EE4FB7E
:10229100FA79C878421202971203FC9003FBEEF020
:1022A100A3EFF07B017A0379F87F0112148390FE8A
:0722B100B2E054FC4401F00F
:0122B8002203
:0622B9009003F41208F48A
:1022BF009004017401F0E4FFFE7DC87C429003F4AA
:1022CF00E0F8A3E0F9A3E0FAA3E0FB120334400A1D
:1022DF009003F412090042C80000E4FFFE7DC87CA1
:1022EF00C29003F4E0F8A3E0F9A3E0FAA3E0FB1235
:1022FF0003346002500A9003F4120900C2C80000B0
:10230F00E4FFFEFDFC9003F4E0F8A3E0F9A3E0FA8C
:10231F00A3E0FB12033440047F0180027F0090048E
:10232F0001EFF09003FE60057404F080037408F071
:10233F00E4FFFEFDFC9003F4E0F8A3E0F9A3E0FA5C
:10234F00A3E0FB12033440109003F4E0FCA3E0FD84
:10235F00A3E0FEA3E0FF80119003F4E0FCA3E0FDF7
:10236F00A3E0FEA3E0FF1203AD9003F41208F49074
:10237F0003F87470F07F007E807DBB7C469003F481
:10238F00E0F8A3E0F9A3E0FAA3E0FB12018EE4FB6F
:10239F00FA79C878421202971203FC9003FBEEF011
:1023AF00A3EFF07B017A0379F87F0212148390FE7A
:0723BF00B2E054F34404F006
:0123C60022F4
:10309400121F409003E8E0FCA3E0FDA3E0FEA3E0E0
:1030A400FF1223C79003ECE0FCA3E0FDA3E0FEA322
:1030B400E0FF1221AB9003F0E0FCA3E0FDA3E0FEEF
:0630C400A3E0FF0222B9A7
:102ABE009003DC1208F49003E0E0FCA3E0FDA3E039
:102ACE00FEA3E0FF9003E81208F49003DCE0FCA301
:102ADE00E0FDA3E0FEA3E0FF9003EC1208F49003E8
:102AEE00E0E0FCA3E0FDA3E0FEA3E0FF9003F01204
:102AFE0008F49003DCE0FCA3E0FDA3E0FEA3E0FFFE
:032B0E00023094FE
:102C07009004381208F4E4FFFE7D207CC19004385C
:102C1700E0F8A3E0F9A3E0FAA3E0FB12009DC004EB
:102C2700C005C006C007E4FFFE7D207C4190043844
:102C3700E0F8A3E0F9A3E0FAA3E0FB12009D9003FC
:0F2C4700E01208F4D007D006D005D004022ABE50
:102C560090043C1208F4E4FFFE7D207C4190043C85
:102C6600E0F8A3E0F9A3E0FAA3E0FB12009DC0049C
:102C7600C005C006C007E4FFFE7D207CC190043C71
:102C8600E0F8A3E0F9A3E0FAA3E0FB12009D9003AD
:0F2C9600E01208F4D007D006D005D004022ABE01
:102FDE009004401208F4900440E0FCA3E0FDA3E04E
:102FEE00FEA3E0FF1203ADC004C005C006C00790EB
:102FFE000440E0FCA3E0FDA3E0FEA3E0FF9003E0AD
:0E300E001208F4D007D006D005D004022ABE66
:10342D009003E0120900000000007F007E007D0087
:05343D007C00022ABE24
:0B35B20012000E12002E7F01023130CB
:1028D700900362E0FCA3E0FDA3E0FEA3E0FFA3E01A
:0D28E700F8A3E0F9A3E0FAA3E0FB12009DC6
:1028F40090036A1208F4E4FFFE7DC87CC290036A68
:10290400E0F8A3E0F9A3E0FAA3E0FB1203345008D3
:10291400E4FFFE7DC87CC222E4FFFE7DC87C4290B9
:10292400036AE0F8A3E0F9A3E0FAA3E0FB1203349E
:10293400600A4008E4FFFE7DC87C422290036AE0FE
:0B294400FCA3E0FDA3E0FEA3E0FF22E7
:1026E3009003621208F41228D77B9A7A99791978A1
:1026F3003F12018E121F40900362E0F8A3E0F9A39A
:10270300E0FAA3E0FBA3E0FCA3E0FDA3E0FEA3E06B
:10271300FF1200991228F47B9A7A997919783F125B
:10272300018E1221AB900362E0F8A3E0F9A3E0FA73
:10273300A3E0FBA3E0FCA3E0FDA3E0FEA3E0FF1204
:1027430000991228F47B9A7A997919783F12018EAD
:102753001223C71228D77B9A7A997919783F1201E5
:042763008E0222B907
:1032B8006865616420737563636573730A0042759A
:1032C80074746F6E2043206973207072657373691C
:0332D8006E67001E
:0C35070041044A0041044800410449000E
:10346C00E49002D4F0A37403F07B017A0279D47F48
:04347C0001021B9F8F
:1030CA009002D47440F0A37402F0A3120900000124
:1030DA00C200E49002DAF0A304F0E4A3F07B017AE0
:1030EA000279D47F021209AD7D017F01122E155398
:0230FA00BAFE1C
:0130FC0022B1
:0635C40012346C0230CA53
:0B20810090035EEBF0A3EAF0A3E9F08F
:10208C00EDD3940840030221AA90035EE0FBA3E089
:10209C00FAA3E0F912062F64DD60030221AA900076
:1020AC0001120648647760030221AA7BFF7A327919
:1020BC00B812106B90035EE0FBA3E0FAA3E0F9907A
:1020CC000004120648B4011B90044AE070047F011E
:1020DC0080027F0090044AEFF060051235DB80032C
:1020EC001235E090035EE0FBA3E0FAA3E0F9900068
:1020FC0005120648B4011B900448E070047F01806F
:10210C00027F00900448EFF0600512008E800312ED
:10211C0035D690035EE0FBA3E0FAA3E0F99000064D
:10212C00120648B401097BFF7A3279C612106B9003
:10213C00035EE0FBA3E0FAA3E0F990000712064867
:10214C00B40112900449E0F4F07F036005121A0701
:10215C008003121A90900449E0704390035EE0FBF8
:10216C00A3E0FAA3E0F9900002120648FF900003E6
:10217C00120648900361F0AC07EC1203C8C004C00F
:10218C0005C006C007900361E0FC1203C89003660B
:0E219C001208F4D007D006D005D0041226E3B6
:0121AA002212
:102A6900E490035DF0900009E0D394004046E0143F
:102A7900F07041900008E0D394004033900008E0E2
:102A8900FF90035DE0FEC39F501774942EF582E416
:102A99003400F583E0FF12353890035DE004F080DF
:102AA900DB7B017A007994900008E0FD122081E433
:042AB900900008F091
:012ABD0022F6
:103442009002D47401F0A37408F07B017A0279D45B
:053452007F01021B9F39
:103340009002D4741FF0E4A3F0A304F0E4A3F0A36C
:0F33500004F0FB7A0279D4122A147F010235A609
:0635CA00123442023340FE
:1031D8007F0312285FAC06AD07E41203C3E4FBFAD1
:1031E8007964784112018EE4FBFA798078451202FD
:0731F800979004440208F463
:1033FE0073756D3D25642C20636E743D25642C2001
:08340E00706F733D25640A0094
:10348000E49002D4F0A3741FF07B017A0279D4E4B3
:04349000FF021B9F7D
:1024D300E49003DCF0A3F0A3F0A3F030841C90039A
:1024E300DDE02440F09003DCE03400F09003DFE013
:1024F30004F070069003DEE004F030831C9003DDEB
:10250300E02420F09003DCE03400F09003DFE004EB
:10251300F070069003DEE004F030820E9003DFE0FB
:1025230004F070069003DEE004F030811C9003DDBC
:10253300E024E0F09003DCE034FFF09003DFE004FC
:10254300F070069003DEE004F09003DCE0FEA3E00D
:10255300FF900405EEF0A3EFF09003DEE0FCA3E0B0
:10256300FD900407ECF0A3EDF01206DCA3EEF0A35C
:10257300EFF07BFF7A3379FE12106B9003DEE0FC01
:10258300A3E0FD4C7003FEFF229003DCE0FEA3E01A
:04259300FF1206DC51
:012597002221
:080003006469733A25660A00E6
:10324C00E49002D4F0A37408F0E4A3F0A37480F02B
:10325C007B017A0279D47F03121B9F7B017A02795E
:06326C00D67F04021B9F47
:0635BD00750E4ED50EFD57
:0135C30022E5
:1027E6009004327414F0E4A3F0A312090000000070
:1027F60000D2C71235BDC2C77D047F02121B40300E
:10280600B30B1235BD900433E004F080F29004332C
:10281600E075F022A4FFAEF07C007D64120687EF1F
:10282600C313FCE41203C89004341208F47BFF7A45
:10283600007903900434E0FCA3E0FDA3E0FEA3E0EE
:10284600FF9004051208F412106B900434E0FCA308
:08285600E0FDA3E0FEA3E0FF9A
:01285E002257
:1034F400E49002D4F0A37403F07B017A0279D4FF40
:03350400021B9F08
:1030FD009002D47440F0A37401F0A31209000001F2
:10310D00C200E49002DAF0A304F0E4A3F07B017AAC
:10311D000279D47F011209AD7D017F01122F9D53DC
:02312D00A23FBF
:01312F00227D
:0635D0001234F40230FD8C
:103457009002D47403F0A37410F07B017A0279D43C
:053467007F03021B9F22
:10301C009002D47460F0A3745DF0A374C0F0E4A3C8
:10302C00F0A3F0A3F0A37440F0A37401F0A3F0FBA1
:10303C007A0279D47F081214837B017A0279D47FC7
:0D304C008112148390FEB6E0543F4440F022
:013059002254
:10318700E4FCFDFE7BC07A5DF9F8120775E47B6409
:10319700FAF9F81200469003B6EEF0A3EFF07B01C0
:0931A7007A0379A87F08021DF3E8
:05008E007F3202318702
:0535D600E4FF02318753
:0435130041044C0023
:10349400E49002D4F0A37420F07B017A0279D4E49E
:0434A400FF021B9F69
:10335F0030850B90044CE0700504F0023226208576
:0E336F000C90044CE0B40105E4F012331F2270
:1031FF009002D47403F0A37480F0A37403F0A304BB
:10320F00F07B017A0279D4E4FF121B9F7B017A02D3
:07321F0079D67F05021B9F19
:0535DB00D287D2CA22D4
:0535E000C287C2CA22EF
:1033B3001235DB7FFA1235287FFA1235281235E0F1
:0A33C3007FFA1235287FFA02352840
:10009600020468E86480F8E933E83360110460F02C
:1000A600ED33EC337009E8FCE9FDEAFEEBFF2204D0
:1000B60060DED3EB9FEA9EE99DE8C2E78CF0C2F7CB
:1000C60095F0400CE8CCF8E9CDF9EACEFAEBCFFB97
:1000D60012043385D0F05804700320D5B3E80470B9
:1000E600075002B2D502047292D5EC0460F7E4CC54
:1000F600C0E0C398F8603B94186008400DD0E0FB60
:1001060002044AE4FBFAC9FC8028E830E406E4C9A4
:10011600FBE4CAFCE830E305E4C9CACBFCE85407B3
:100126006010F8C3E913F9EA13FAEB13FBEC13FCBE
:10013600D8F130F52FC3E49CFCEF9BFFEE9AFEED61
:1001460099FDD0E0FBEF4E4D4C701222DB0302040A
:100156006FEC2CFCEF33FFEE33FEED33FDED30E7B5
:10016600EB02044AEF2BFFEE3AFEED39FDD0E0FB41
:1001760050130BBB0003020472ED13FDEE13FEEFEA
:0801860013FFEC13FC02044A14
:10018E00EC4D6011E8497017ED33EC3304600DE46B
:10019E00FCFFFEFD22E933E8330470F80204681216
:1001AE00043358046009E4CC248150062850090217
:1001BE00047228400302046FC0E0EB4A7044B98019
:1001CE0006D0E0FB02045EEF4E701CBD8008EBFF14
:1001DE00EAFEE9FD80EBE98DF0A4FEE5F002027780
:1001EE00E9CDF9EAFEEBFFEF89F0A4FCE5F0CE894C
:1001FE00F0A42EFFE435F0CD89F0A42DFEE435F009
:10020E008067EF4E7005BD80D780C3EF8BF0A4AC36
:10021E00F0EE8BF0A42CFCE435F0F8EF8AF0A42C71
:10022E00E5F038FCE433CB8DF0A42CFCE5F03BF884
:10023E00EE8AF0A42CFCE5F038F8E433CF89F0A474
:10024E002CFCE5F038CF3400CE89F0A42FFFE5F07A
:10025E003EFEE433C98DF0A42EFEE5F039CD8AF0D2
:10026E00A42FFFE5F03EFEE43DFD33D0E0FB50074A
:10027E000BBB000F020472EC2CFCEF33FFEE33FECF
:06028E00ED33FD02044AFD
:10029400020472EC5D046005E8590470030204680A
:1002A400120433580460F6EC4860F2EC7004FDFE6E
:1002B400FF22C860DB2481C85009C398600250063D
:1002C40002046F9850CAF582E9294B4A7005AB8243
:1002D40002045E75F0007C1A7880C3EF9BEE9AED01
:1002E40099400DC3EF9BFFEE9AFEED99FDE842F0B5
:1002F400DC23ACF0D0E0FFD0E0FED0E0FDAB822008
:10030400E7101BEB60BAEC2CFCEF33FFEE33FEED91
:1003140033FD02044AE803F830E705C0F075F00045
:10032400EF2FFFEE33FEED33FD40B830E7C280AA75
:1003340074F8CC6480CCC86480C8F58204604FC370
:10034400EB9FF5F0EA9E42F0E99D42F0E89C45F00F
:10035400603C501DE5825FFFE582D313CB5BCBF499
:100364002B5582FB50280ABA002409B900200880C2
:100374001DE5825BFBE582D313CF5FCFF4C3132F5C
:100384005582FF50090EBE00050DBD00010CC3EBE4
:100394009FF5F0EA9E42F0E99D42F0E89C45F0604A
:0903A40007CC4820E701B3EC226C
:1003AD00ED33EC33600A047003BD8004ECB2E7FC5E
:0103BD00221D
:1003BE0075F020800E75F010800575F0087D007EBA
:1003CE00007F003392D530D503120892EC334010E3
:1003DE00EF33FFEE33FEED33FDEC33FCD5F0ED22C3
:0E03EE00E5F0247EA2D513CC92E7CDCEFF22FF
:1003FC00EDD2E7CD33EC3392D524814006E4FFFEF9
:10040C00FDFC22FCE4CFCECDCC24E0501174FF8057
:10041C00EDC3CC13CCCD13CDCE13CECF13CF0470F4
:07042C00F030D5DE0208925A
:10100000E53A2405F582E43404F583E0053A2290BC
:101010000402302B03900405E475F001120931023B
:10102000062F2024E97F2ED2248018EF540F24901D
:10103000D43440D4FF30280BEF24BFB41A0050033F
:101040002461FFE53B6002153B053EE53E7002056D
:101050003D302B0E900402E475F001120931EF02CD
:1010600006750200267403D22B8003E4C22BF53AE6
:10107000900402120948E4F53BF53DF53EE53B607E
:10108000077F2012104380F5753CFFC225C224C2A1
:1010900026C227C229C22AC22C12100FFF700D309F
:1010A0002B057F00121054AF3EAE3D22B4255FC227
:1010B000D5C22812100FFF24D0B40A00501A75F0C0
:1010C0000A783B30D50508B6FF0106C6A426F620EF
:1010D000D5047002D22780D924CFB41A00EF50046F
:1010E000C2E5D228021346D22580C6D22480C0D2BF
:1010F0002680BCD2D580BAD22980B47F201210437A
:101100002026077401B53B0040F1121000FF1210B9
:101110004302107DD22CD22A8095121000FB1210AF
:1011200000FA121000F94A4B700679447A147BFFDA
:1011300020262EE53B602A7E008E827583001206F3
:101140004860060EEE653C70F0C2D5EBC0E0EAC028
:10115000E0E9C0E0EE1213A7D0E0F9D0E0FAD0E069
:10116000FB12062FFF60AAEBC0E0EAC0E0E9C0E096
:10117000121043D0E02401F9D0E03400FAD0E0FBB3
:10118000E53C0460DCD53CD98087D22680A21213CE
:101190008960F7E53C70010412047DA93C600DE50F
:1011A0003C600914F53C121431EF60F3EA30E702B9
:1011B000F404C3995079EAF4253C0430E701E404CF
:1011C000F53C800D12138960C1EA053C253C1204F0
:1011D0007DEA900431F030E701E4253C04D53C047D
:1011E000202901141213A7E4C0E012143190043135
:1011F000E0601320E70714F012102B802204F0D0D7
:10120000E014C0E07F0012102BE53C6007121022B2
:10121000153C800B302903121022D0E002107DD043
:10122000E00480C4121389609EE53C0412047D90A2
:101230000431EAF0E53C2029026001042404121381
:01124000A706
:1012410074FF04C0E012143112102BE53C20290276
:101251006003121022D0E0B53CE87F4512103590B2
:101261000431E07F2B30E7047F2DF404C0E012103D
:1012710043D0E075F00A84C0F012102CD0E01210B7
:101281002C02107D791080027908C22AC22C8008B4
:10129100D2D5790A8004790AC2D5E53C047002F5F9
:1012A1003CE4FAFDFEFF121000FC7B08202513121E
:1012B1001000FD7B1030240A121000FE121000FFF6
:1012C1007B20EC3382D592D55013C3E43024069FA2
:1012D100FFE49EFEE42025039DFDE49CFCE4CBF8A5
:1012E100C225EC700CCFCECDCCE824F8F870F38099
:1012F10017C3EF33FFEE33FEED33FDEC33FCEB337D
:10130100FB994002FB0FD8E9EB302505F8D0E0C48A
:1013110048B225C0E00AEC4D4E4F78207B0070C2E8
:10132100EAB53C0040BCC0E01213A9D0F0D0E020E7
:101331002504C4C0E0C4B225C0F012102CD0F0D5F1
:10134100F0EB02107D120951111A5312855810EB5E
:101351004C10E74212894F129144129149110043F6
:1013610012975511C446122445118E47146450102A
:10137100EF2D10F32E11162B10F723111420144DFD
:101381002A10AF480000110EE53CB4FF03753C067E
:10139100121000FC121000FD121000FE121000FFCE
:1013A10090042A0204BA790AA2D520271430290907
:1013B100B910020404B9080104A2D5202A0250017F
:1013C100042026689226B53B005034C0E07F2030CF
:1013D10027197F30A226722A7229500F121400C2D7
:1013E10026C22AC229C22C7F30800F302903E9C0CE
:1013F100E0121043302903D0E0F9D0E0B53BCC3006
:1014010029177F30B9100C1210437F583028077FFD
:10141100788003B908031210433026057F2D02108E
:10142100437F20202CF87F2B202AF322922680CF85
:101431007F00B40700500B242AF582E43404F583BD
:10144100E0FF22286E756C6C2900D2251210003045
:1014510025F8C225783B30D50108F60210AF2D5092
:101461004349581210002403B405004001E49014CC
:101471005F93121034743A121034D227753B040270
:021481001285D2
:10043300E9D2E7C933E833F892D5EDD2E7CD33EC0F
:0704430033FC5002B2D52288
:10044A00EC30E7100FBF000C0EBE00080DBD000413
:10045A000BEB6014A2D5EB13FCED92E7FD2274FFBF
:10046A00FCFDFEFF22E480F8A2D574FF13FC7D8018
:03047A00E480EF2C
:10047D00F920E73624F950037907E4F42402FBE56B
:10048D0082158270021583DBF6E024FB501BE960B8
:10049D0014E4F0E582158270021583E004F0B40ACD
:0D04AD0008E4F0D9EE7401F00A22C2D52255
:1004BA00ED33EC3392D5FA602AB4FF33EDC2E77B11
:1004CA00FF60067A0479DFE4227A0479E820D50409
:1004DA007A0479E3224E614E002B494E46002D499B
:1004EA004E4600E47A08F0A3DAFC7B00740722C0C7
:1004FA0083C082ECC0E0EDC0E0EEC0E0EFC0E0EA0D
:10050A0075F010A4CAABF075F04DA42BFBE435F0DE
:10051A00FCEA2410FAEB34C5FBEC34D9FCEDC2E753
:10052A00FF75F056A4F42411C5F0F434C58FF0A475
:10053A002AE5F03BE43CF020E7141205EFD0E0FF97
:10054A00D0E0FED0E0FDD0E0FC1202978014F40463
:10055A001205EFD0E0FFD0E0FED0E0FDD0E0FC12C3
:10056A00018ED082D083E0FAEDD2E7CD33EC33248A
:10057A0082FBE4C3CF33CFCE33CECD33CD33DBF3DF
:10058A007B0775F00A846004F0A31B0AE5F0F0A368
:10059A008FF0740AA4FFACF08EF0740AA42CFEAC9F
:1005AA00F050010C8DF0740AA42CFDE435F0F0A390
:0505BA00DBDE740722E6
:1005BF003F8000004120000042C80000447A000044
:1005CF00461C400047C35000497424004B189680C6
:1005DF004CBEBC205A0E1BCA6753C21C749DC5AEBD
:1005EF00FB60065407601C232312061DEB54386072
:1005FF000912060912061812018EECF8EDF9EEFA3F
:10060F00EFCB22EB12061880F1543803241C90050F
:10061F00BFFE93FC0EEE93FD0EEE930ECE93FF22D4
:030000000226577E
:0C265700787FE4F6D8FD75814502269ED0
:10062F00BB010689828A83E0225002E722BBFE02C9
:09063F00E32289828A83E49322FC
:10064800BB010CE58229F582E5833AF583E0225067
:1006580006E92582F8E622BBFE06E92582F8E222B1
:0D066800E58229F582E5833AF583E49322CB
:10067500BB010689828A83F0225002F722BBFE0164
:02068500F3225E
:10068700BC000BBE0029EF8DF084FFADF022E4CC57
:10069700F875F008EF2FFFEE33FEEC33FCEE9DEC20
:1006A700984005FCEE9DFE0FD5F0E9E4CEFD22ED66
:1006B700F8F5F0EE8420D21CFEADF075F008EF2FB0
:1006C700FFED33FD4007985006D5F0F222C398FDA1
:0506D7000FD5F0EA223E
:1006DC00C2D5EC30E709B2D5E4C39DFDE49CFCEE39
:1006EC0030E715B2D5E4C39FFFE49EFE120687C324
:1006FC00E49DFDE49CFC800312068730D507C3E41F
:06070C009FFFE49EFE22A7
:10071200BB010A89828A83E0F5F0A3E022500687B2
:10072200F009E71922BBFE07E3F5F009E319228974
:0B073200828A83E493F5F074019322A7
:10073D00BB0110E58229F582E5833AF583E0F5F0FA
:10074D00A3E0225009E92582F886F008E622BBFED7
:10075D000AE92582F8E2F5F008E222E5832AF5831D
:08076D00E993F5F0A3E99322E2
:10077500E88FF0A4CC8BF0A42CFCE98EF0A42CFC23
:100785008AF0EDA42CFCEA8EF0A4CDA8F08BF0A4A1
:100795002DCC3825F0FDE98FF0A42CCD35F0FCEB00
:1007A5008EF0A4FEA9F0EB8FF0A4CFC5F02ECD39C5
:0F07B500FEE43CFCEAA42DCE35F0FDE43CFC2232
:1007C40075F008758200EF2FFFEE33FECD33CDCCEC
:1007D40033CCC58233C5829BED9AEC99E58298406F
:1007E4000CF582EE9BFEED9AFDEC99FC0FD5F0D64C
:1007F400E4CEFBE4CDFAE4CCF9A88222B800C1B976
:100804000059BA002DEC8BF084CFCECDFCE5F0CBB3
:10081400F97818EF2FFFEE33FEED33FDEC33FCEBEC
:1008240033FB10D703994004EB99FB0FD8E5E4F9A7
:10083400FA227818EF2FFFEE33FEED33FDEC33FC94
:10084400C933C910D7059BE99A4007EC9BFCE99A88
:10085400F90FD8E0E4C9FAE4CCFB2275F010EF2FCD
:10086400FFEE33FEED33FDCC33CCC833C810D707CD
:100874009BEC9AE899400AED9BFDEC9AFCE899F808
:0E0884000FD5F0DAE4CDFBE4CCFAE4C8F9229B
:10004600C2D5E830E70FB2D5E4C39BFBE49AFAE4E5
:1000560099F9E498F8EC30E717B2D512007C12084B
:1000660000E4C39BFBE49AFAE499F9E498F8800368
:1000760012080030D50DE4C39FFFE49EFEE49DFD0B
:04008600E49CFC22D8
:0E089200C3E49FFFE49EFEE49DFDE49CFC2277
:1008A000EB9FF5F0EA9E42F0E99D42F0E89C45F0AE
:0108B0002225
:1008B100E8600FECC313FCED13FDEE13FEEF13FF25
:0308C100D8F12249
:1008C400BB010DE58229F582E5833AF583020984AB
:1008D4005007E92582F8020977BBFE07E92582F86B
:1008E400020990E58229F582E5833AF58302099DA0
:0C08F400ECF0A3EDF0A3EEF0A3EFF02277
:10090000A8828583F0D083D08212091712091712AA
:100910000917120917E473E493A3C583C5F0C583CF
:10092000C8C582C8F0A3C583C5F0C583C8C582C841
:0109300022A4
:10093100F8E0FBA3A3E0F925F0F0E582158270024F
:070941001583E0FA38F022F3
:09094800EBF0A3EAF0A3E9F022B0
:10095100D083D082F8E4937012740193700DA3A335
:1009610093F8740193F5828883E473740293686049
:06097100EFA3A3A380DF49
:102663000219CAE493A3F8E493A34003F68001F2AA
:1026730008DFF48029E493A3F85407240CC8C33378
:10268300C4540F4420C8834004F456800146F6DF47
:10269300E4800B0102040810204080903507E47E9B
:1026A300019360BCA3FF543F30E509541FFEE4933C
:1026B300A360010ECF54C025E060A840B8E493A303
:1026C300FAE493A3F8E493A3C8C582C8CAC583CA2E
:1026D300F0A3C8C582C8CAC583CADFE9DEE780BEE6
:0135170000B3
:0D097700E6FB08E6F908E6FA08E6CBF822F0
:0C098400E0F8A3E0F9A3E0FAA3E0FB22F6
:0D099000E2FB08E2F908E2FA08E2CBF822E7
:10099D00E493F8740193F9740293FA740393FB22B0
:00000001FF
